:100000000C9434000C941D030C9451000C9451007A
:100010000C9451000C9451000C9451000C9451001C
:100020000C9451000C9451000C9451000C9451000C
:100030000C9451000C9451000C9451000C945100FC
:100040000C9451000C9451000C9451000C945100EC
:100050000C9451000C9451000C9451000C945100DC
:100060000C9451000C94510011241FBECFEFD8E026
:10007000DEBFCDBF11E0A0E0B1E0EEE1FBE202C0E7
:1000800005900D92A033B107D9F711E0A0E3B1E0DC
:1000900001C01D92A234B107E1F70E944B030C94FA
:1000A0008D150C940000DF93CF9300D0CDB7DEB751
:1000B0008A8381E00E94C70283E00E94AD028A81A8
:1000C0000E94AD0280E00E94AD02898380E00E9420
:1000D000C70289810F900F90CF91DF910895DF9330
:1000E000CF9300D0CDB7DEB789836A8381E00E94C9
:1000F000C70282E00E94AD0289810E94AD028A811E
:100100000E94AD0280E00E94C7020F900F90CF9135
:10011000DF910895DF93CF93CDB7DEB781E00E94E2
:10012000C70280EC0E94AD0280E00E94C702CF911E
:10013000DF910895DF93CF9300D00F92CDB7DEB754
:1001400089836A834B838EE00E9453008295869553
:1001500087708430B1F48AE269810E946F0089E27D
:100160006A810E946F0088E20E945300982F987F56
:100170008B81892B982F88E2692F0E946F0081E084
:1001800001C080E00F900F900F90CF91DF91089504
:10019000DF93CF9300D000D000D0CDB7DEB78983F6
:1001A0004A835B836C837D832E8381E00E94C70238
:1001B00082E00E94AD0289810E94AD028E81882377
:1001C00009F443C08A819B81AC81BD81689412F897
:1001D000B695A795979587951694D1F70E94AD028D
:1001E0008A81282F2295220F207E8A819B81AC81D3
:1001F000BD81072E7BE1B695A795979587957A9552
:10020000D1F7702D822B88600E94AD028A819B817C
:10021000AC81BD81072E73E1B695A795979587951B
:100220007A95D1F7702D0E94AD028A819B81AC81B5
:10023000BD81072E7BE0B695A795979587957A9512
:10024000D1F7702D0E94AD0214C08A819B81AC81D0
:10025000BD81689412F8B695A795979587951694E1
:10026000D1F70E94AD028A818295880F807E0E941C
:10027000AD0280E00E94C70226960FB6F894DEBF5A
:100280000FBECDBFCF91DF910895DF93CF93CDB750
:10029000DEB70E948E0281E692E00E94F9020E947F
:1002A0008A008FE00E9453008F718068982F8FE042
:1002B000692F0E946F008EE00E9453008295869500
:1002C00087708430C1F784E062ED42E40E949A00B6
:1002D00084E340E050E0BA0121E00E94C80088E3D6
:1002E00040E050E0BA0121E00E94C80080E60E9490
:1002F0005300887F8460982F80E6692F0E946F00EA
:100300008FE00E945300982F9F718FE0692F0E9409
:100310006F008EE00E945300829586958770882337
:10032000C1F7CF91DF9108950F93DF93CF93CDB7AE
:10033000DEB729970FB6F894DEBF0FBECDBF8A8314
:100340004B835C836D837E8338872F83098781E0AD
:100350000E94C70282E00E94AD028A81882F90E04D
:1003600003968295807F0E94AD028985829586954D
:10037000869583700E94AD028985882F90E08071F8
:100380009070009709F443C08B819C81AD81BE8140
:10039000689412F8B695A795979587951694D1F716
:1003A0000E94AD028B81282F2295220F207E8B8107
:1003B0009C81AD81BE81072E7BE1B695A79597956F
:1003C00087957A95D1F7702D822B88600E94AD02B7
:1003D0008B819C81AD81BE81072E73E1B695A79577
:1003E000979587957A95D1F7702D0E94AD028B81F4
:1003F0009C81AD81BE81072E7BE0B695A795979530
:1004000087957A95D1F7702D0E94AD0214C08B812B
:100410009C81AD81BE81689412F8B695A795979599
:1004200087951694D1F70E94AD028B818295880F33
:10043000807E0E94AD028985282F2F708985882FA4
:1004400090E080729070009711F080E401C080E02D
:10045000822B0E94AD0219820EC08981882F90E004
:100460002F813885820F931FFC0180810E94AD028D
:1004700089818F5F89838981282F30E08985882F42
:1004800090E08F709070281739073CF380E00E944D
:10049000C70282E00E94AD0280E80E94AD028A811C
:1004A000882F90E003968295807F0E94AD02299666
:1004B0000FB6F894DEBF0FBECDBFCF91DF910F9185
:1004C00008950F931F93DF93CF930F92CDB7DEB7AD
:1004D00083E00E94AD0280E60E94AD0219820FC047
:1004E0008981082F10E080E00E94AD02282FC8010A
:1004F0008E5C9E4FFC01208389818F5F8983898177
:100500008E3070F382E391E090933101809330015B
:100510000F90CF91DF911F910F910895DF93CF93AB
:10052000CDB7DEB784E290E02CE2FC01208385E2C7
:1005300090E025E230E0F90120812460FC01208375
:100540008CE490E020E5FC0120838DE490E021E044
:10055000FC012083CF91DF910895DF93CF930F9219
:10056000CDB7DEB789838EE490E02981FC0120833A
:1005700000008DE490E0FC0180818823D4F78EE4B4
:1005800090E0FC0180810F90CF91DF910895DF937F
:10059000CF930F92CDB7DEB789838981882399F4F1
:1005A00085E290E025E230E0F90120812460FC0141
:1005B000208384E290E024E230E0F901208124608D
:1005C000FC01208312C085E290E025E230E0F901D1
:1005D00020812B7FFC01208384E290E024E230E044
:1005E000F90120812460FC0120830F90CF91DF91DD
:1005F0000895DF93CF9300D0CDB7DEB79A83898378
:1006000089819A81909341018093400189E690E02D
:1006100029E630E0F90120812260FC0120838DE38E
:1006200090E02DE330E0F90120812160FC0120837E
:100630000F900F90CF91DF9108951F920F920FB6F8
:100640000F9211242F933F934F935F936F937F9358
:100650008F939F93AF93BF93EF93FF93DF93CF93CA
:10066000CDB7DEB78091400190914101FC01099521
:10067000CF91DF91FF91EF91BF91AF919F918F91BA
:100680007F916F915F914F913F912F910F900FBE8E
:100690000F901F901895DF93CF93CDB7DEB72897B3
:1006A0000FB6F894DEBF0FBECDBF81E08A838FEF17
:1006B0008B838FEF8C8319821D821E821F82188686
:1006C0000E9445010E94920C0E94330F789480E0B2
:1006D00091E00E94BD0D87E091E00E94BD0D29E0F0
:1006E00031E081E060E0A9010E94E80D80E191E045
:1006F0000E94BD0D03C0000001C0000080913001C8
:10070000909131010097B9F30E94140E1D821E8250
:100710001F82188680913001909131010196FC0171
:100720008081882F90E0880F991F880F991F880F6C
:10073000991F282F80913001909131010296FC0180
:100740008081829586958770822B882F90E0A0E02B
:10075000B0E02D813E814F815885820F931FA41FE9
:10076000B51F8D839E83AF83B8878D819E81AF81B6
:10077000B88585309105A105B105A1F50E94140E3B
:1007800082E191E00E94BD0D2DE131E081E060E069
:10079000A9010E94E80D198211C020913001309109
:1007A00031018981882F90E00696820F931FFC010A
:1007B00080810E947F0889818F5F898380913001C9
:1007C000909131010596FC018081982F92959F7040
:1007D0008981891710F380E00E94B10E80E00E94A9
:1007E000C00E8CCF8D819E81AF81B88586309105FA
:1007F000A105B105A1F50E94140E8FE191E00E94C0
:10080000BD0D2DE131E081E060E0A9010E94E80D1D
:10081000198211C020913001309131018981882FD6
:1008200090E00696820F931FFC0180810E947F0852
:1008300089818F5F89838091300190913101059684
:10084000FC018081982F92959F708981891710F300
:1008500080E00E94B10E80E00E94C00E4FCF8D81DB
:100860009E81AF81B88587309105A105B10509F05A
:1008700044CF8A81882351F080E00E94B10E80E04D
:100880000E94C00E0E94140E1A821BC080E091E0EC
:100890000E94BD0D87E091E00E94BD0D29E031E08E
:1008A00081E060E0A9010E94E80D80E191E00E94F2
:1008B000BD0D8B810E94B10E8C810E94C00E81E023
:1008C0008A8380E090E028960FB6F894DEBF0FBED2
:1008D000CDBFCF91DF9108950F931F93DF93CF93F7
:1008E000CDB7DEB7C755D0400FB6F894DEBF0FBE08
:1008F000CDBF9E01295A3F4FF901808388E290E0E5
:1009000028E230E0F9012081422F43709E01295AEC
:100910003F4FF901208126952695242BFC01208349
:1009200088E290E028E230E0F90120812E7FFC018E
:10093000208388E290E028E230E0F9012081226003
:10094000FC01208380E090E0A0E8BFE389839A83E4
:10095000AB83BC8369817A818B819C812BEA3AEAE3
:100960004AEA50E40E943C11DC01CB018D839E8356
:10097000AF83B88711E06D817E818F81988520E0FB
:1009800030E040E85FE30E94441388230CF010E05D
:10099000112319F081E08987A3C011E06D817E8168
:1009A0008F81988520E030E04FE753E40E94E41205
:1009B00018160CF010E0112309F489C069817A81BE
:1009C0008B819C8120E030E04AE754E40E9436129B
:1009D000DC01CB018A879B87AC87BD876A857B85D5
:1009E0008C859D8520E030E04AE755E40E943C116B
:1009F000DC01CB018E879F87A88BB98B11E06E85B8
:100A00007F858889998920E030E040E85FE30E9493
:100A1000441388230CF010E0112329F081E090E0CA
:100A20009B8B8A8B46C011E06E857F85888999896A
:100A300020E03FEF4FE757E40E94E41218160CF055
:100A400010E0112361F16A857B858C859D8520E00E
:100A500030E040E251E40E943C11DC01CB01BC01DA
:100A6000CD010E94680FDC01CB019B8B8A8B12C0E9
:100A700080E991E09D8B8C8B8C899D898C01C801CC
:100A80000197F1F78C011D8B0C8B8A899B8901974B
:100A90009B8B8A8B8A899B89009751F728C06E852A
:100AA0007F85888999890E94680FDC01CB019B8B27
:100AB0008A8B8A899B899F8B8E8B8E899F898C01DB
:100AC000F8013197F1F78F011F8B0E8B10C06D81EC
:100AD0007E818F8198850E94680FDC01CB01898718
:100AE0008985888F888D182F1A95F1F7188F88E2DD
:100AF00090E028E230E0F90120812D7FFC01208385
:100B000080E090E0A8E4B3E4898F9A8FAB8FBC8F2C
:100B1000698D7A8D8B8D9C8D2BEA3AEA4AEA50E4F6
:100B20000E943C11DC01CB018D8F9E8FAF8FB8A34B
:100B300011E06D8D7E8D8F8D98A120E030E040E832
:100B40005FE30E94441388230CF010E0112319F096
:100B500081E089A3A3C011E06D8D7E8D8F8D98A15A
:100B600020E030E04FE753E40E94E41218160CF046
:100B700010E0112309F489C0698D7A8D8B8D9C8DCD
:100B800020E030E04AE754E40E943612DC01CB0159
:100B90008AA39BA3ACA3BDA36AA17BA18CA19DA1A9
:100BA00020E030E04AE755E40E943C11DC01CB0133
:100BB0008EA39FA3A8A7B9A711E06EA17FA188A5C6
:100BC00099A520E030E040E85FE30E9444138823C9
:100BD0000CF010E0112329F081E090E09BA78AA798
:100BE00046C011E06EA17FA188A599A520E03FEF46
:100BF0004FE757E40E94E41218160CF010E011239E
:100C000061F16AA17BA18CA19DA120E030E040E2CE
:100C100051E40E943C11DC01CB01BC01CD010E94DA
:100C2000680FDC01CB019BA78AA712C080E991E085
:100C30009DA78CA78CA59DA58C01C8010197F1F7F4
:100C40008C011DA70CA78AA59BA501979BA78AA726
:100C50008AA59BA5009751F728C06EA17FA188A502
:100C600099A50E94680FDC01CB019BA78AA78AA5E2
:100C70009BA59FA78EA78EA59FA58C01F8013197F4
:100C8000F1F78F011FA70EA710C06D8D7E8D8F8D80
:100C900098A10E94680FDC01CB0189A389A188ABD0
:100CA00088A9182F1A95F1F718AB88E290E028E28E
:100CB00030E0F9012081422F43709E01295A3F4FB5
:100CC000F9012081222F30E0220F331F220F331F22
:100CD000242BFC01208388E290E028E230E0F90137
:100CE00020812260FC01208380E090E0A0E8BFE347
:100CF00089AB9AABABABBCAB69A97AA98BA99CA910
:100D00002BEA3AEA4AEA50E40E943C11DC01CB01AA
:100D10008DAB9EABAFABB8AF11E06DA97EA98FA92B
:100D200098AD20E030E040E85FE30E944413882360
:100D30000CF010E0112319F081E089AFE6C011E05A
:100D40006DA97EA98FA998AD20E030E04FE753E46C
:100D50000E94E41218160CF010E0112309F4CCC024
:100D600069A97AA98BA99CA920E030E04AE754E45C
:100D70000E943612DC01CB018AAF9BAFACAFBDAF96
:100D80008E01025C1F4F6AAD7BAD8CAD9DAD20E046
:100D900030E04AE755E40E943C11DC01CB01F80148
:100DA00080839183A283B383CE01CE9611E0FC01B0
:100DB000608171818281938120E030E040E85FE3CF
:100DC0000E94441388230CF010E0112349F0CE0157
:100DD0008E5B9F4F21E030E0FC01318320836EC0A9
:100DE000CE01CE9611E0FC016081718182819381F8
:100DF00020E03FEF4FE757E40E94E41218160CF092
:100E000010E0112309F449C06AAD7BAD8CAD9DADF6
:100E100020E030E040E251E40E943C11DC01CB01D3
:100E20008E010E5B1F4FBC01CD010E94680FDC01DB
:100E3000CB01F8019183808327C0CE018C5B9F4F4B
:100E400020E931E0FC0131832083CE018C5B9F4F90
:100E5000FC01808191818C01C8010197F1F78C011F
:100E6000CE018C5B9F4FFC0111830083CE018E5B12
:100E70009F4F9E012E5B3F4FF90120813181215010
:100E80003040FC0131832083CE018E5B9F4FFC01FB
:100E900080819181009789F64BC08E010E5B1F4FB8
:100EA000CE01CE96FC0160817181828193810E9486
:100EB000680FDC01CB01F80191838083CE018A5B4E
:100EC0009F4F9E012E5B3F4FF90120813181FC0134
:100ED00031832083CE018A5B9F4FFC018081918109
:100EE0008C01C8010197F1F78C01CE018A5B9F4FFD
:100EF000FC01118300831CC06DA97EA98FA998AD48
:100F00000E94680FDC01CB0189AFCE01885B9F4F47
:100F100029ADFC012083CE01885B9F4FFC018081BD
:100F2000182F1A95F1F7CE01885B9F4FFC011083B3
:100F300088E290E028E230E0F90120812D7FFC0179
:100F400020839E01275B3F4F80E090E0A0E0B0E46B
:100F5000F90180839183A283B3838E01035B1F4FCA
:100F6000CE01875B9F4FFC016081718182819381FB
:100F700020E030E04AE755E40E943C11DC01CB015F
:100F8000F80180839183A283B383CE01835B9F4F5B
:100F900011E0FC01608171818281938120E030E069
:100FA00040E85FE30E94441388230CF010E0112313
:100FB00049F0CE018F5A9F4F21E030E0FC01318390
:100FC000208374C0CE01835B9F4F11E0FC016081E0
:100FD00071818281938120E03FEF4FE757E40E94C7
:100FE000E41218160CF010E0112309F44DC0CE01E4
:100FF000875B9F4FFC01608171818281938120E03A
:1010000030E040E251E40E943C11DC01CB018E0152
:101010000F5A1F4FBC01CD010E94680FDC01CB01AC
:10102000F8019183808327C0CE018D5A9F4F20E91C
:1010300031E0FC0131832083CE018D5A9F4FFC01AA
:10104000808191818C01C8010197F1F78C01CE015B
:101050008D5A9F4FFC0111830083CE018F5A9F4F01
:101060009E012F5A3F4FF90120813181215030409C
:10107000FC0131832083CE018F5A9F4FFC01808178
:101080009181009789F62FC08E010F5A1F4FCE0114
:10109000835B9F4FFC0160817181828193810E94FB
:1010A000680FDC01CB01F80191838083CE018B5A5C
:1010B0009F4F9E012F5A3F4FF90120813181FC0142
:1010C00031832083CE018B5A9F4FFC018081918117
:1010D0008C01C8010197F1F78C01CE018B5A9F4F0B
:1010E000FC0111830083C95ADF4F0FB6F894DEBFAD
:1010F0000FBECDBFCF91DF911F910F9108950F9338
:101100001F93DF93CF93CDB7DEB7C755D0400FB64F
:10111000F894DEBF0FBECDBF9E01295A3F4FF901A3
:10112000808388E290E028E230E0F9012081422FBC
:1011300043709E01295A3F4FF9012081269526953B
:10114000242BFC01208388E290E028E230E0F901C2
:1011500020812160FC01208388E290E028E230E0D9
:10116000F90120812260FC01208380E090E0A0E86A
:10117000BFE389839A83AB83BC8369817A818B8146
:101180009C812BEA3AEA4AEA50E40E943C11DC01D5
:10119000CB018D839E83AF83B88711E06D817E8103
:1011A0008F81988520E030E040E85FE30E9444139F
:1011B00088230CF010E0112319F081E08987A3C087
:1011C00011E06D817E818F81988520E030E04FE7CE
:1011D00053E40E94E41218160CF010E0112309F4F5
:1011E00089C069817A818B819C8120E030E04AE767
:1011F00054E40E943612DC01CB018A879B87AC87BE
:10120000BD876A857B858C859D8520E030E04AE737
:1012100055E40E943C11DC01CB018E879F87A88B8F
:10122000B98B11E06E857F858889998920E030E04F
:1012300040E85FE30E94441388230CF010E0112380
:1012400029F081E090E09B8B8A8B46C011E06E858F
:101250007F858889998920E03FEF4FE757E40E9416
:10126000E41218160CF010E0112361F16A857B85F9
:101270008C859D8520E030E040E251E40E943C11E5
:10128000DC01CB01BC01CD010E94680FDC01CB0168
:101290009B8B8A8B12C080E991E09D8B8C8B8C8913
:1012A0009D898C01C8010197F1F78C011D8B0C8B76
:1012B0008A899B8901979B8B8A8B8A899B89009756
:1012C00051F728C06E857F85888999890E94680FAB
:1012D000DC01CB019B8B8A8B8A899B899F8B8E8BB0
:1012E0008E899F898C01F8013197F1F78F011F8B4F
:1012F0000E8B10C06D817E818F8198850E94680F52
:10130000DC01CB0189878985888F888D182F1A95F4
:10131000F1F7188F88E290E028E230E0F9012081AF
:101320002D7FFC01208380E090E0A8E4B3E4898F66
:101330009A8FAB8FBC8F698D7A8D8B8D9C8D2BEAAC
:101340003AEA4AEA50E40E943C11DC01CB018D8F5D
:101350009E8FAF8FB8A311E06D8D7E8D8F8D98A17C
:1013600020E030E040E85FE30E94441388230CF063
:1013700010E0112319F081E089A3A3C011E06D8D65
:101380007E8D8F8D98A120E030E04FE753E40E94DE
:10139000E41218160CF010E0112309F489C0698DCD
:1013A0007A8D8B8D9C8D20E030E04AE754E40E94DA
:1013B0003612DC01CB018AA39BA3ACA3BDA36AA117
:1013C0007BA18CA19DA120E030E04AE755E40E947A
:1013D0003C11DC01CB018EA39FA3A8A7B9A711E004
:1013E0006EA17FA188A599A520E030E040E85FE3E9
:1013F0000E94441388230CF010E0112329F081E0AF
:1014000090E09BA78AA746C011E06EA17FA188A5A6
:1014100099A520E03FEF4FE757E40E94E412181629
:101420000CF010E0112361F16AA17BA18CA19DA1B8
:1014300020E030E040E251E40E943C11DC01CB01AD
:10144000BC01CD010E94680FDC01CB019BA78AA7DC
:1014500012C080E991E09DA78CA78CA59DA58C0169
:10146000C8010197F1F78C011DA70CA78AA59BA5C0
:1014700001979BA78AA78AA59BA5009751F728C02B
:101480006EA17FA188A599A50E94680FDC01CB0100
:101490009BA78AA78AA59BA59FA78EA78EA59FA578
:1014A0008C01F8013197F1F78F011FA70EA710C02B
:1014B0006D8D7E8D8F8D98A10E94680FDC01CB0110
:1014C00089A389A188AB88A9182F1A95F1F718ABC1
:1014D00088E290E028E230E0F9012081422F437059
:1014E0009E01295A3F4FF9012081222F30E0220F1F
:1014F000331F220F331F242BFC01208388E290E04E
:1015000028E230E0F90120812260FC01208380E0A4
:1015100090E0A0E8BFE389AB9AABABABBCAB69A9E9
:101520007AA98BA99CA92BEA3AEA4AEA50E40E94DC
:101530003C11DC01CB018DAB9EABAFABB8AF11E082
:101540006DA97EA98FA998AD20E030E040E85FE367
:101550000E94441388230CF010E0112319F081E05D
:1015600089AFE6C011E06DA97EA98FA998AD20E0F2
:1015700030E04FE753E40E94E41218160CF010E03C
:10158000112309F4CCC069A97AA98BA99CA920E0F0
:1015900030E04AE754E40E943612DC01CB018AAF06
:1015A0009BAFACAFBDAF8E01025C1F4F6AAD7BAD90
:1015B0008CAD9DAD20E030E04AE755E40E943C113F
:1015C000DC01CB01F80180839183A283B383CE0138
:1015D000CE9611E0FC01608171818281938120E0CF
:1015E00030E040E85FE30E94441388230CF010E0F1
:1015F000112349F0CE018E5B9F4F21E030E0FC01CA
:10160000318320836EC0CE01CE9611E0FC01608153
:1016100071818281938120E03FEF4FE757E40E9480
:10162000E41218160CF010E0112309F449C06AAD59
:101630007BAD8CAD9DAD20E030E040E251E40E94F6
:101640003C11DC01CB018E010E5B1F4FBC01CD01B3
:101650000E94680FDC01CB01F8019183808327C0D1
:10166000CE018C5B9F4F20E931E0FC013183208368
:10167000CE018C5B9F4FFC01808191818C01C80160
:101680000197F1F78C01CE018C5B9F4FFC01118318
:101690000083CE018E5B9F4F9E012E5B3F4FF90171
:1016A0002081318121503040FC0131832083CE01E3
:1016B0008E5B9F4FFC0180819181009789F64BC022
:1016C0008E010E5B1F4FCE01CE96FC0160817181B1
:1016D000828193810E94680FDC01CB01F801918324
:1016E0008083CE018A5B9F4F9E012E5B3F4FF901A5
:1016F00020813181FC0131832083CE018A5B9F4FA1
:10170000FC01808191818C01C8010197F1F78C0166
:10171000CE018A5B9F4FFC01118300831CC06DA921
:101720007EA98FA998AD0E94680FDC01CB0189AF1B
:10173000CE01885B9F4F29ADFC012083CE01885BE1
:101740009F4FFC018081182F1A95F1F7CE01885B1D
:101750009F4FFC01108388E290E028E230E0F9011D
:1017600020812D7FFC0120839E01275B3F4F80E07D
:1017700090E0A0E0B0E4F90180839183A283B38379
:101780008E01035B1F4FCE01875B9F4FFC01608181
:1017900071818281938120E030E04AE755E40E9424
:1017A0003C11DC01CB01F80180839183A283B383D8
:1017B000CE01835B9F4F11E0FC01608171818281CA
:1017C000938120E030E040E85FE30E9444138823E7
:1017D0000CF010E0112349F0CE018F5A9F4F21E009
:1017E00030E0FC013183208374C0CE01835B9F4FC6
:1017F00011E0FC01608171818281938120E03FEFE3
:101800004FE757E40E94E41218160CF010E0112381
:1018100009F44DC0CE01875B9F4FFC01608171814F
:101820008281938120E030E040E251E40E943C114B
:10183000DC01CB018E010F5A1F4FBC01CD010E946C
:10184000680FDC01CB01F8019183808327C0CE01B2
:101850008D5A9F4F20E931E0FC0131832083CE0176
:101860008D5A9F4FFC01808191818C01C8010197A5
:10187000F1F78C01CE018D5A9F4FFC01118300833B
:10188000CE018F5A9F4F9E012F5A3F4FF901208161
:10189000318121503040FC0131832083CE018F5AA9
:1018A0009F4FFC0180819181009789F62FC08E01A6
:1018B0000F5A1F4FCE01835B9F4FFC0160817181E6
:1018C000828193810E94680FDC01CB01F801918332
:1018D0008083CE018B5A9F4F9E012F5A3F4FF901B3
:1018E00020813181FC0131832083CE018B5A9F4FAF
:1018F000FC01808191818C01C8010197F1F78C0175
:10190000CE018B5A9F4FFC0111830083C95ADF4FD0
:101910000FB6F894DEBF0FBECDBFCF91DF911F9100
:101920000F9108950F931F93DF93CF93CDB7DEB739
:101930006C970FB6F894DEBF0FBECDBF87E290E084
:101940002FEFFC01208380E090E0A0EAB1E48983DE
:101950009A83AB83BC8369817A818B819C8120E0EF
:1019600030E04AE755E40E943C11DC01CB018D8355
:101970009E83AF83B88711E06D817E818F819885CA
:1019800020E030E040E85FE30E94441388230CF03D
:1019900010E0112329F081E090E09A87898746C002
:1019A00011E06D817E818F81988520E03FEF4FE7C8
:1019B00057E40E94E41218160CF010E0112361F1B4
:1019C00069817A818B819C8120E030E040E251E4A2
:1019D0000E943C11DC01CB01BC01CD010E94680FCB
:1019E000DC01CB019A87898712C080E991E09C874E
:1019F0008B878B859C858C01C8010197F1F78C0141
:101A00001C870B8789859A8501979A87898789859D
:101A10009A85009751F717C06D817E818F819885D7
:101A20000E94680FDC01CB019A87898789859A8596
:101A30009E878D878D859E858C01F8013197F1F702
:101A40008F011E870D8782E00E946C0488E20E944D
:101A50006C048CE00E946C0486E00E946C0481E0BF
:101A60000E946C0480E090E0A0E0B0E48F87988B47
:101A7000A98BBA8B6F85788989899A8920E030E0B3
:101A80004AE755E40E943C11DC01CB018B8B9C8B17
:101A9000AD8BBE8B11E06B897C898D899E8920E09E
:101AA00030E040E85FE30E94441388230CF010E02C
:101AB000112329F081E090E0988F8F8B46C011E0D0
:101AC0006B897C898D899E8920E03FEF4FE757E441
:101AD0000E94E41218160CF010E0112361F16F85DA
:101AE000788989899A8920E030E040E251E40E94B7
:101AF0003C11DC01CB01BC01CD010E94680FDC016F
:101B0000CB01988F8F8B12C080E991E09A8F898FDB
:101B1000898D9A8D8C01C8010197F1F78C011A8F7C
:101B2000098F8F89988D0197988F8F8B8F89988DCA
:101B3000009751F717C06B897C898D899E890E9417
:101B4000680FDC01CB01988F8F8B8F89988D9C8FCC
:101B50008B8F8B8D9C8D8C01F8013197F1F78F0164
:101B60001C8F0B8F6C960FB6F894DEBF0FBECDBFE7
:101B7000CF91DF911F910F910895DF93CF9300D004
:101B800000D0CDB7DEB79C838B831A8219820FC039
:101B900089819A812B813C81820F931FFC01808176
:101BA0000E947F0889819A8101969A83898389811D
:101BB0009A812B813C81820F931FFC0180818823B5
:101BC00039F70F900F900F900F90CF91DF910895FC
:101BD000DF93CF9300D000D0CDB7DEB789836A837F
:101BE0005C834B838981882349F48A81803130F476
:101BF0008A818F7080680E946C040BC0898181305B
:101C000041F48A81803128F48A818F70806C0E942F
:101C10006C048B819C810E94BD0D0F900F900F90E2
:101C20000F90CF91DF9108950F931F93DF93CF9380
:101C3000CDB7DEB72E970FB6F894DEBF0FBECDBF7F
:101C400081E00E946C0480E090E0A0E0B0E4898331
:101C50009A83AB83BC8369817A818B819C8120E0EC
:101C600030E04AE755E40E943C11DC01CB018D8352
:101C70009E83AF83B88711E06D817E818F819885C7
:101C800020E030E040E85FE30E94441388230CF03A
:101C900010E0112329F081E090E09A87898746C0FF
:101CA00011E06D817E818F81988520E03FEF4FE7C5
:101CB00057E40E94E41218160CF010E0112361F1B1
:101CC00069817A818B819C8120E030E040E251E49F
:101CD0000E943C11DC01CB01BC01CD010E94680FC8
:101CE000DC01CB019A87898712C080E991E09C874B
:101CF0008B878B859C858C01C8010197F1F78C013E
:101D00001C870B8789859A8501979A87898789859A
:101D10009A85009751F717C06D817E818F819885D4
:101D20000E94680FDC01CB019A87898789859A8593
:101D30009E878D878D859E858C01C8010197F1F75F
:101D40008C011E870D8780E80E946C042E960FB6CA
:101D5000F894DEBF0FBECDBFCF91DF911F910F91E1
:101D60000895DF93CF930F92CDB7DEB7898387E4D1
:101D700090E02981FC0120830F90CF91DF9108959D
:101D8000DF93CF930F92CDB7DEB7898388E490E0DD
:101D90002981FC0120830F90CF91DF910895DF937B
:101DA000CF93CDB7DEB78BE290E02BE230E0F901C4
:101DB00020812160FC0120838BE290E02BE230E067
:101DC000F90120812D7FFC012083CF91DF910895BF
:101DD000DF93CF93CDB7DEB78BE290E02BE230E01C
:101DE000F90120812260FC0120838BE290E02BE24C
:101DF00030E0F90120812E7FFC012083CF91DF911B
:101E00000895DF93CF93CDB7DEB78BE290E02BE25E
:101E100030E0F90120812061FC0120838BE290E019
:101E20002BE230E0F90120812F77FC012083CF9154
:101E3000DF910895DF93CF93CDB7DEB78BE290E0CB
:101E40002BE230E0F90120812068FC0120838BE245
:101E500090E02BE230E0F90120812F7EFC0120830D
:101E6000CF91DF910895DF93CF93CDB7DEB78AE2AC
:101E700090E02AE230E0F9012081236FFC01208309
:101E800084E490E024E430E0F90120812068FC0142
:101E9000208384E490E024E430E0F9012081216093
:101EA000FC01208385E490E025E430E0F901208105
:101EB0002260FC0120838FEF0E94B10E8FEF0E9401
:101EC000C00E0E94CF0E0E941A0FCF91DF9108958D
:101ED000EF92FF920F931F937B018C0120E030E083
:101EE00040E05FE40E94141387FD11C0C801B701F0
:101EF00020E030E040E05FE40E940B110E94741388
:101F00009B01AC01205030404040504806C0C80101
:101F1000B7010E9474139B01AC01B901CA011F9162
:101F20000F91FF90EF900895A0E0B0E0EAE9FFE0A4
:101F30000C945A15FC01EA018081823008F438C102
:101F4000DB019C91923008F430C1843059F4943014
:101F500009F02EC1918111968C911197981709F073
:101F600021C126C1943009F420C19230B1F48230ED
:101F700009F01EC1CA01AF0128E0DA010D90AD01E0
:101F8000DC010D92CD012150C1F7DB0111968C913E
:101F900011979181892389830AC1823009F405C18F
:101FA000C280D380DB0112966D907C9013972481C0
:101FB0003581468157811496ED90FD900D911C91CD
:101FC0001797C601861997095C0197FF04C0AA24D8
:101FD000BB24A81AB90AB0E2AB16B1040CF061C078
:101FE000181619066CF5370148010A2C04C096949E
:101FF0008794779467940A94D2F781E090E0A0E008
:10200000B0E00A2C04C0880F991FAA1FBB1F0A94B6
:10201000D2F70197A109B1098E219F21A023B123F5
:10202000EE24FF248701E3940097A105B10519F47C
:10203000EE24FF248701E628F728082919293CC047
:102040000097D1F1CA0CDB1C39014A010A2C04C0EB
:1020500096948794779467940A94D2F781E090E0FD
:10206000A0E0B0E00A2C04C0880F991FAA1FBB1F74
:102070000A94D2F70197A109B10982239323A423DB
:10208000B52321E030E040E050E00097A105B10524
:1020900019F420E030E0A9012629372948295929D7
:1020A0000BC06C147D0424F4EE24FF24870104C0CB
:1020B000630120E030E0A9018181FB019181891752
:1020C00009F445C0882349F0D801C701821B930B4E
:1020D000A40BB50B9C01AD0104C02E193F09400BA8
:1020E000510B57FD04C01982DB82CA820BC081E00C
:1020F0008983DB82CA8250954095309521953F4F68
:102100004F4F5F4F2C833D834E835F830DC0880FFD
:10211000991FAA1FBB1F8C839D83AE83BF838A81B7
:102120009B8101979B838A838C819D81AE81BF8136
:102130009C01AD0121503040404050402F3FEFEF17
:102140003E07EFEF4E07EFE35E0708F30BC089830E
:10215000DB82CA822E0D3F1D401F511F2C833D8301
:102160004E835F8383E088832C813D814E815F8134
:1021700057FF1DC0DA01C90181709070A070B07066
:102180005695479537952795822B932BA42BB52BE6
:102190008C839D83AE83BF838A819B8101969B83C1
:1021A0008A8305C0E8E2F1E003C0FB0101C0FE0143
:1021B000CF01CDB7DEB7EEE00C947615A0E2B0E02B
:1021C000E4EEF0E10C94621569837A838B839C833F
:1021D0002D833E834F83588789E0E82EF12CEC0E47
:1021E000FD1ECE010196B7010E9494148E010F5E70
:1021F0001F4FCE010596B8010E949414C701B80183
:10220000AE01475E5F4F0E94940F0E94C613A096D6
:10221000E6E00C947E15A0E2B0E0E1E1F1E10C947F
:10222000621569837A838B839C832D833E834F83DE
:1022300058878E01075F1F4FCE010196B8010E949B
:10224000941491E1E92EF12CEC0EFD1ECE010596C1
:10225000B7010E9494148A8991E089278A8BC8016A
:10226000B701AE01475E5F4F0E94940F0E94C613F4
:10227000A096E6E00C947E15A0E2B0E0E2E4F1E185
:102280000C94561569837A838B839C832D833E83BC
:102290004F835887CE010196BE01675F7F4F0E9432
:1022A0009414CE010596BE016F5E7F4F0E94941478
:1022B0009985923078F089898230C0F0943019F491
:1022C000823041F4CBC0843019F4923079F4C6C026
:1022D000923051F481E02A859A89291709F480E027
:1022E0008A87CE010996BCC0823051F481E02A85EC
:1022F0009A89291709F480E08A8BCE014196B0C0F3
:102300006D847E848F849888ED88FE880F89188D6F
:10231000E0E2F0E080E090E0DC01AA24BB2465016B
:1023200020E030E0A901B3016170707061157105A2
:10233000D1F02E0D3F1D401F511F15012601280E03
:10234000391E4A1E5B1E81E090E0A0E0B0E02E1531
:102350003F054007510718F080E090E0DC01820D56
:10236000931DA41DB51DAA0CBB1CCC1CDD1C17FFA6
:1023700009C061E0262E312C412C512CA228B32813
:10238000C428D528319749F0EE0CFF1C001F111FFF
:102390009694879477946794C6CF6B897C89EB85F4
:1023A000FC856E0F7F1F6E5F7F4F7C8F6B8F61E0B0
:1023B000EA857A89E71709F460E06A8F6B8D7C8D76
:1023C00010C0FC01E170F070309729F056954795E8
:1023D000379527955068B695A795979587956F5F20
:1023E0007F4FB7FDEECF0CC0880F991FAA1FBB1FF0
:1023F00057FD8160220F331F441F551F61507040ED
:102400008030E0E09E07E0E0AE07E0E4BE0760F366
:102410006B8F7C8F6FE7E62EF12C012D112DE822BA
:10242000F9220A231B2360E4E616F10401051105D5
:1024300061F487FD0AC0211531054105510529F0D8
:10244000805C9F4FAF4FBF4F80788D8F9E8FAF8F37
:10245000B8A383E0898FCE01499602C088E291E05B
:102460000E94C613A096E2E10C947215A8E1B0E0B8
:10247000ECE3F2E10C945E1569837A838B839C8391
:102480002D833E834F8358878E01075F1F4FCE01F8
:102490000196B8010E94941481E1E82EF12CEC0E13
:1024A000FD1ECE010596B7010E94941499859230C5
:1024B00008F483C08989823008F47BC02A853A8970
:1024C00023272A87943011F0923021F4981709F0CD
:1024D0006CC071C0843039F41D861E861F86188A30
:1024E0001C861B866AC0823019F484E0898765C027
:1024F0008B859C852B893C89821B930B9C878B87C2
:102500002D853E854F855889ED88FE880F89188D69
:102510002E153F054007510738F4220F331F441F83
:10252000551F01979C878B876FE170E0A12CB12C20
:10253000C12CA0E4DA2E80E090E0DC012E153F05EE
:102540004007510740F08A299B29AC29BD292E1943
:102550003F09400B510BD694C794B794A794220F10
:10256000331F441F551F6150704041F76FE7E62E3F
:10257000F12C012D112DE822F9220A231B2360E4FE
:10258000E616F1040105110561F487FD0AC0211565
:1025900031054105510529F0805C9F4FAF4FBF4F7A
:1025A00080788D879E87AF87B88B8E01075F1F4F1E
:1025B00004C0870102C008E211E0C8010E94C613EE
:1025C0006896EAE00C947A15A8E1B0E0EAEEF2E150
:1025D0000C94621569837A838B839C832D833E835D
:1025E0004F8358878E01075F1F4FCE010196B801B8
:1025F0000E94941481E1E82EF12CEC0EFD1ECE0118
:102600000596B7010E9494148985823040F089892B
:10261000823028F0C801B7010E94FD1401C08FEF7D
:102620006896E6E00C947E15A8E1B0E0EAE1F3E1FB
:102630000C94621569837A838B839C832D833E83FC
:102640004F8358878E01075F1F4FCE010196B80157
:102650000E94941481E1E82EF12CEC0EFD1ECE01B7
:102660000596B7010E9494148985823040F08989CB
:10267000823028F0C801B7010E94FD1401C08FEF1D
:102680006896E6E00C947E15A8E1B0E0EAE4F3E198
:102690000C94621569837A838B839C832D833E839C
:1026A0004F8358878E01075F1F4FCE010196B801F7
:1026B0000E94941481E1E82EF12CEC0EFD1ECE0157
:1026C0000596B7010E9494148985823040F089896B
:1026D000823028F0C801B7010E94FD1401C081E0DA
:1026E0006896E6E00C947E15ACE0B0E0EAE7F3E132
:1026F0000C94661569837A838B839C83CE01019643
:10270000BE016B5F7F4F0E9494148D81823081F1F6
:10271000823070F1843021F48E81882369F10AC0FF
:102720002F81388537FD24C06E812F3131053CF073
:10273000662311F120E030E040E050E821C08EE156
:1027400090E0821B930B29853A854B855C8504C0FC
:1027500056954795379527958A95D2F7662381F048
:1027600050954095309521953F4F4F4F5F4F08C092
:1027700020E030E0A90104C02FEF3FEF4FEF5FE70B
:10278000B901CA012C96E2E00C948215EF92FF92F7
:102790000F931F93CF93DF93FC01248135814681F2
:1027A000578161818081823020F44061EFEFF0E059
:1027B000A3C0843009F49BC0823009F492C0211573
:1027C00031054105510509F48FC00280F381E02DE8
:1027D0008FEFE238F8070CF05AC0C2E8DFEFCE1BEB
:1027E000DF0BCA31D1056CF579018A010C2E04C0CA
:1027F00016950795F794E7940A94D2F781E090E054
:10280000A0E0B0E00C2E04C0880F991FAA1FBB1FC8
:102810000A94D2F70197A109B10982239323A42333
:10282000B52321E030E040E050E00097A105B1057C
:1028300019F420E030E0A9012E293F29402B512B2B
:1028400003C020E030E0A901DA01C9018F77907060
:10285000A070B07080349105A105B10539F427FF4F
:1028600009C0205C3F4F4F4F5F4F04C0215C3F4F7A
:102870004F4F5F4FE1E0F0E0203080E0380780E02C
:10288000480780E4580728F5E0E0F0E022C0E0388F
:10289000F1056CF5E158FF4FDA01C9018F779070AF
:1028A000A070B07080349105A105B10539F427FFFF
:1028B00009C0205C3F4F4F4F5F4F04C0215C3F4F2A
:1028C0004F4F5F4F57FF05C0569547953795279552
:1028D000319687E056954795379527958A95D1F794
:1028E0000BC0E0E0F0E005C0E0E0F0E005C0EFEF95
:1028F000F0E020E030E0A9018E2F879588278795AA
:10290000942F9F77679566276795E695E22EA92F06
:10291000A82BFE2FF62B622F732F8A2F9F2FCDB758
:10292000DEB7E6E00C947E15DC01FB012C911196DC
:102930003C91119712968C911297482F4F7750E047
:10294000982F991F9927991F13966C911397862F8B
:10295000880F892B90E0661F6627661F61830097AA
:1029600039F5211531054105510511F482E029C0E1
:1029700082E89FEF9383828367E0220F331F441F17
:10298000551F6A95D1F783E0808309C0220F331F5A
:10299000441F551F82819381019793838283203046
:1029A00080E0380780E0480780E4580778F320C0CB
:1029B0008F3F910579F4211531054105510519F431
:1029C00084E08083089544FF03C081E0808310C0C9
:1029D00010820EC08F5790409383828383E0808360
:1029E00087E0220F331F441F551F8A95D1F750648B
:1029F00024833583468357830895FC01DB0190814E
:102A0000923008F449C08C91823008F445C094306B
:102A100051F461818430B1F511962C91119730E019
:102A2000261B310941C0843021F0923041F48230BC
:102A3000B1F111968C9111978823A1F12DC061817C
:102A4000823001F111968C9111976817D9F4228187
:102A5000338112968D919C9113978217930794F06E
:102A600028173907BCF02481358146815781149697
:102A70008D919D910D90BC91A02D82179307A40775
:102A8000B50718F4662341F00DC0281739074A0727
:102A90005B0728F4662331F021E030E005C020E038
:102AA00030E002C02FEF3FEFC90108952F923F920F
:102AB0004F925F926F927F928F929F92AF92BF924E
:102AC000CF92DF92EF92FF920F931F93CF93DF93FA
:102AD000CDB7DEB7CA1BDB0B0FB6F894DEBF0FBE57
:102AE000CDBF09942A88398848885F846E847D84A4
:102AF0008C849B84AA84B984C884DF80EE80FD80A6
:102B00000C811B81AA81B981CE0FD11D0FB6F8941B
:0E2B1000DEBF0FBECDBFED010895F894FFCFDC
:102B1E004D4F544F52310058004D4F544F523200CA
:102B2E00590055536F6E696356616C3A002000541C
:102B3E00656D7056616C3A000000000000000000E8
:00000001FF
