:100000000C9434000C946B030C9451000C9451002C
:100010000C9451000C9451000C9451000C9451001C
:100020000C9451000C9451000C9413050C94F8039B
:100030000C9451000C9451000C9451000C945100FC
:100040000C9451000C9451000C9451000C945100EC
:100050000C9451000C9451000C9451000C945100DC
:100060000C9451000C94510011241FBECFEFD8E026
:10007000DEBFCDBF12E0A8E0B2E001C01D92A63203
:10008000B107E1F712E0A0E0B1E0E2E7FBE102C076
:1000900005900D92A830B107D9F70E9499030C94EE
:1000A000B70D0C940000DF93CF93CDB7DEB78CE78C
:1000B00090E02CE730E0F90120812064FC012083EE
:1000C0008AE790E02AE730E0F90120812068FC010E
:1000D00020838AE790E02AE730E0F9012081276059
:1000E000FC012083CF91DF910895DF93CF930F928E
:1000F000CDB7DEB789838CE790E02CE730E0F901DB
:1001000030812981232BFC0120838AE790E02AE7B4
:1001100030E0F90120812064FC01208300008AE79F
:1001200090E0FC018081882F90E0807490700097AF
:10013000B1F788E790E0FC01808191810F90CF9129
:10014000DF910895DF93CF9300D0CDB7DEB78A83D8
:1001500081E00E94150383E00E94FB028A810E94D5
:10016000FB0280E00E94FB02898380E00E9415036D
:1001700089810F900F90CF91DF910895DF93CF93F6
:1001800000D0CDB7DEB789836A8381E00E94150372
:1001900082E00E94FB0289810E94FB028A810E9408
:1001A000FB0280E00E9415030F900F90CF91DF912A
:1001B0000895DF93CF93CDB7DEB781E00E9415039A
:1001C00080EC0E94FB0280E00E941503CF91DF913A
:1001D0000895DF93CF9300D00F92CDB7DEB7898318
:1001E0006A834B838EE00E94A20082958695877079
:1001F0008430B1F48AE269810E94BE0089E26A819A
:100200000E94BE0088E20E94A200982F987F8B81F6
:10021000892B982F88E2692F0E94BE0081E001C0DF
:1002200080E00F900F900F90CF91DF910895DF93B2
:10023000CF9300D000D000D0CDB7DEB789834A83FA
:100240005B836C837D832E8381E00E94150382E0B3
:100250000E94FB0289810E94FB028E81882309F49F
:1002600043C08A819B81AC81BD81689412F8B695A8
:10027000A795979587951694D1F70E94FB028A81DE
:10028000282F2295220F207E8A819B81AC81BD81FF
:10029000072E7BE1B695A795979587957A95D1F727
:1002A000702D822B88600E94FB028A819B81AC8129
:1002B000BD81072E73E1B695A795979587957A9599
:1002C000D1F7702D0E94FB028A819B81AC81BD8198
:1002D000072E7BE0B695A795979587957A95D1F7E8
:1002E000702D0E94FB0214C08A819B81AC81BD816C
:1002F000689412F8B695A795979587951694D1F7B7
:100300000E94FB028A818295880F807E0E94FB02F8
:1003100080E00E94150326960FB6F894DEBF0FBE4C
:10032000CDBFCF91DF910895DF93CF93CDB7DEB7E7
:100330000E94DD0280EB92E00E9447030E94D900F8
:100340008FE00E94A2008F718068982F8FE0692F44
:100350000E94BE008EE00E94A20082958695877062
:100360008430C1F784E062ED42E40E94E90084E356
:1003700040E050E0BA0121E00E94170188E340E02C
:1003800050E0BA0121E00E94170180E60E94A2001D
:10039000887F8460982F80E6692F0E94BE008FE0DE
:1003A0000E94A200982F9F718FE0692F0E94BE00CB
:1003B0008EE00E94A2008295869587708823C1F7FF
:1003C000CF91DF9108950F93DF93CF93CDB7DEB731
:1003D00029970FB6F894DEBF0FBECDBF8A834B833B
:1003E0005C836D837E8338872F83098781E00E9439
:1003F000150382E00E94FB028A81882F90E0039619
:100400008295807F0E94FB028985829586958695DC
:1004100083700E94FB028985882F90E08071907024
:10042000009709F443C08B819C81AD81BE816894A3
:1004300012F8B695A795979587951694D1F70E94CF
:10044000FB028B81282F2295220F207E8B819C819D
:10045000AD81BE81072E7BE1B695A79597958795CF
:100460007A95D1F7702D822B88600E94FB028B81D8
:100470009C81AD81BE81072E73E1B695A7959795B6
:1004800087957A95D1F7702D0E94FB028B819C8114
:10049000AD81BE81072E7BE0B695A7959795879590
:1004A0007A95D1F7702D0E94FB0214C08B819C813C
:1004B000AD81BE81689412F8B695A79597958795FA
:1004C0001694D1F70E94FB028B818295880F807E63
:1004D0000E94FB028985282F2F708985882F90E044
:1004E00080729070009711F080E401C080E0822B50
:1004F0000E94FB0219820EC08981882F90E02F8113
:100500003885820F931FFC0180810E94FB02898144
:100510008F5F89838981282F30E08985882F90E03B
:100520008F709070281739073CF382E00E94FB021D
:1005300080E80E94FB028A81882F90E003968295D2
:10054000807F0E94FB0280E00E94150329960FB66F
:10055000F894DEBF0FBECDBFCF91DF910F9108950C
:100560000F931F93DF93CF930F92CDB7DEB783E046
:100570000E94FB0280E60E94FB0219820FC0898163
:10058000082F10E080E00E94FB02282FC801865F40
:100590009D4FFC01208389818F5F898389818E3003
:1005A00070F38AE092E090930902809308020F9022
:1005B000CF91DF911F910F910895DF93CF93CDB726
:1005C000DEB784E290E02CE2FC01208385E290E03B
:1005D00025E230E0F90120812460FC0120838CE4D5
:1005E00090E020E5FC0120838DE490E0FC01108286
:1005F000CF91DF910895DF93CF930F92CDB7DEB700
:1006000089838EE490E02981FC01208300008DE441
:1006100090E0FC0180818823D4F78EE490E0FC0117
:1006200080810F90CF91DF910895DF93CF930F9248
:10063000CDB7DEB789838981882399F485E290E07C
:1006400025E230E0F90120812460FC01208384E26E
:1006500090E024E230E0F90120812460FC01208355
:1006600012C085E290E025E230E0F90120812B7F85
:10067000FC01208384E290E024E230E0F901208153
:100680002460FC0120830F90CF91DF910895DF93C8
:10069000CF9300D0CDB7DEB79A83898389819A81C1
:1006A000909319028093180289E690E029E630E0E1
:1006B000F90120812260FC0120838DE390E02DE38D
:1006C00030E0F90120812160FC0120830F900F9020
:1006D000CF91DF9108951F920F920FB60F921124C0
:1006E0002F933F934F935F936F937F938F939F933A
:1006F000AF93BF93EF93FF93DF93CF93CDB7DEB765
:100700008091180290911902FC010995CF91DF9117
:10071000FF91EF91BF91AF919F918F917F916F91D9
:100720005F914F913F912F910F900FBE0F901F90AF
:1007300018950F93DF93CF93CDB7DEB72F970FB6F2
:10074000F894DEBF0FBECDBF84E290E02FEFFC0136
:1007500020831A8219821B828AE290E02AE230E02A
:10076000F90120812260FC0120838DE390E022E0EA
:10077000FC01208389E690E022E0FC01208378944C
:1007800001C0000080E00E9475009D838C834C8135
:100790005D8124EF31E0429FC001439F900D529F45
:1007A000900D11242FEF33E0B9010E943B0D9B0106
:1007B000C9019A83898389819A818E3191050CF3CD
:1007C00089819A819E012A5F3F4FB9014AE050E03A
:1007D0000E94860D8AE08B839E012A5F3F4F80E056
:1007E00046E050E060E070E00B810E94E301CACF78
:1007F0001F920F920FB60F9211240F931F932F93F6
:100800003F934F935F936F937F938F939F93AF9398
:10081000BF93EF93FF93DF93CF93CDB7DEB7689786
:10082000DEBFCDBF85E290E025E230E0F901308106
:1008300022E02327FC01208380E090E0A0E4B1E4E3
:1008400089839A83AB83BC8369817A818B819C8104
:100850002BEA3AEA4AEA5EE30E94EF07DC01CB01A9
:100860008D839E83AF83B88711E06D817E818F81F8
:10087000988520E030E040E85FE30E94F709882394
:100880000CF010E0112319F081E08987A3C011E07A
:100890006D817E818F81988520E030E04FE753E4C1
:1008A0000E94970918160CF010E0112309F489C072
:1008B00069817A818B819C8120E030E04AE754E4B1
:1008C0000E94E908DC01CB018A879B87AC87BD8742
:1008D0006A857B858C859D8520E030E04AE753E47E
:1008E0000E94EF07DC01CB018E879F87A88BB98B15
:1008F00011E06E857F858889998920E030E040E8A5
:100900005FE30E94F70988230CF010E0112329F01F
:1009100081E090E09B8B8A8B46C011E06E857F85DD
:100920008889998920E03FEF4FE757E40E949709B3
:1009300018160CF010E0112361F16A857B858C8517
:100940009D8520E030E040E251E40E94EF07DC01A9
:10095000CB01BC01CD010E941B06DC01CB019B8BAE
:100960008A8B12C089E190E09D8B8C8B8C899D894C
:100970008C01C8010197F1F78C011D8B0C8B8A89C2
:100980009B8901979B8B8A8B8A899B89009751F75A
:1009900028C06E857F85888999890E941B06DC01A5
:1009A000CB019B8B8A8B8A899B899F8B8E8B8E89AF
:1009B0009F898C01F8013197F1F78F011F8B0E8B06
:1009C00010C06D817E818F8198850E941B06DC019D
:1009D000CB0189878985888F888D182F1A95F1F723
:1009E000188F85E290E025E230E0F901308122E0C5
:1009F0002327FC0120836896DEBFCDBFCF91DF9116
:100A0000FF91EF91BF91AF919F918F917F916F91E6
:100A10005F914F913F912F911F910F910F900FBEBA
:100A20000F901F9018951F920F920FB60F921124DE
:100A3000EF92FF920F931F932F933F934F935F93E8
:100A40006F937F938F939F93AF93BF93EF93FF9396
:100A5000DF93CF93CDB7DEB781E890E0FC018081D2
:100A6000882F90E080749070009799F081E890E072
:100A700021E830E0F90120812F7BFC01208386E80A
:100A800090E0FC0180819181909325028093240263
:100A90005FC081E890E021E830E0F9012081206426
:100AA000FC01208386E890E0FC0180819181909395
:100AB0001B0280931A0220911A0230911B0280912E
:100AC000240290912502A901481B590BCA01909359
:100AD0002302809322028091200290912102CC0176
:100AE000A0E0B0E0BC01CD010E94D90A7B018C01DD
:100AF0008091220290912302AA2797FDA095BA2FF8
:100B0000BC01CD010E94270A9B01AC01C801B701BD
:100B10000E94EF07DC01CB01BC01CD0120E030E0F9
:100B200040E251E40E94EF07DC01CB01BC01CD01A2
:100B300020E030E041E154E40E94E908DC01CB010F
:100B400080931C0290931D02A0931E02B0931F027B
:100B5000CF91DF91FF91EF91BF91AF919F918F91D5
:100B60007F916F915F914F913F912F911F910F91C5
:100B7000FF90EF900F900FBE0F901F901895DF938E
:100B8000CF93CDB7DEB784E290E024E230E0F90104
:100B900020812260FC01208381E890E021E830E0A0
:100BA000F90120812068FC01208381E890E021E8A0
:100BB00030E0F90120812360FC01208381E890E08E
:100BC00021E830E0F90120812860FC0120838FE6D4
:100BD00090E02FE630E0F90120812262FC012083C1
:100BE00081E890E021E830E0F90120812064FC01F7
:100BF000208388E890E02CE534E4FC0131832083F5
:100C000084E090E090932102809320027894CF9129
:100C1000DF910895DF93CF93CDB7DEB780911C02AB
:100C200090911D02A0911E02B0911F02BC01CD0146
:100C3000CF91DF910895EF92FF920F931F937B0165
:100C40008C0120E030E040E05FE40E94C70987FDAE
:100C500011C0C801B70120E030E040E05FE40E942D
:100C6000BE070E94870A9B01AC01205030404040E3
:100C7000504806C0C801B7010E94870A9B01AC0119
:100C8000B901CA011F910F91FF90EF900895A0E064
:100C9000B0E0EDE4F6E00C94530DFC01EA01808134
:100CA000823008F438C1DB019C91923008F430C1E5
:100CB000843059F4943009F02EC1918111968C91B1
:100CC0001197981709F021C126C1943009F420C169
:100CD0009230B1F4823009F01EC1CA01AF0128E0A0
:100CE000DA010D90AD01DC010D92CD012150C1F76B
:100CF000DB0111968C9111979181892389830AC117
:100D0000823009F405C1C280D380DB0112966D9058
:100D10007C90139724813581468157811496ED90FC
:100D2000FD900D911C911797C601861997095C01DA
:100D300097FF04C0AA24BB24A81AB90AB0E2AB16D4
:100D4000B1040CF061C0181619066CF537014801A2
:100D50000A2C04C096948794779467940A94D2F7E7
:100D600081E090E0A0E0B0E00A2C04C0880F991F59
:100D7000AA1FBB1F0A94D2F70197A109B1098E21BE
:100D80009F21A023B123EE24FF248701E394009741
:100D9000A105B10519F4EE24FF248701E628F72800
:100DA000082919293CC00097D1F1CA0CDB1C390174
:100DB0004A010A2C04C096948794779467940A9405
:100DC000D2F781E090E0A0E0B0E00A2C04C0880FE8
:100DD000991FAA1FBB1F0A94D2F70197A109B10955
:100DE00082239323A423B52321E030E040E050E0A8
:100DF0000097A105B10519F420E030E0A9012629EA
:100E00003729482959290BC06C147D0424F4EE2499
:100E1000FF24870104C0630120E030E0A901818143
:100E2000FB019181891709F445C0882349F0D80155
:100E3000C701821B930BA40BB50B9C01AD0104C031
:100E40002E193F09400B510B57FD04C01982DB825C
:100E5000CA820BC081E08983DB82CA8250954095AB
:100E6000309521953F4F4F4F5F4F2C833D834E83ED
:100E70005F830DC0880F991FAA1FBB1F8C839D83A2
:100E8000AE83BF838A819B8101979B838A838C81F8
:100E90009D81AE81BF819C01AD0121503040404019
:100EA00050402F3FEFEF3E07EFEF4E07EFE35E07B7
:100EB00008F30BC08983DB82CA822E0D3F1D401FC1
:100EC000511F2C833D834E835F8383E088832C8175
:100ED0003D814E815F8157FF1DC0DA01C9018170DC
:100EE0009070A070B0705695479537952795822BD6
:100EF000932BA42BB52B8C839D83AE83BF838A81D8
:100F00009B8101969B838A8305C0E0E0F1E003C0EA
:100F1000FB0101C0FE01CF01CDB7DEB7EEE00C94BE
:100F20006F0DA0E2B0E0E7E9F7E00C945B0D698398
:100F30007A838B839C832D833E834F83588789E0FC
:100F4000E82EF12CEC0EFD1ECE010196B7010E9499
:100F5000790C8E010F5E1F4FCE010596B8010E94DD
:100F6000790CC701B801AE01475E5F4F0E9447068A
:100F70000E94AB0BA096E6E00C94770DA0E2B0E0E7
:100F8000E4ECF7E00C945B0D69837A838B839C839C
:100F90002D833E834F8358878E01075F1F4FCE01FD
:100FA0000196B8010E94790C91E1E92EF12CEC0E2A
:100FB000FD1ECE010596B7010E94790C8A8991E049
:100FC00089278A8BC801B701AE01475E5F4F0E9437
:100FD00047060E94AB0BA096E6E00C94770DA0E2CA
:100FE000B0E0E5EFF7E00C944F0D69837A838B83D3
:100FF0009C832D833E834F835887CE010196BE018B
:10100000675F7F4F0E94790CCE010596BE016F5E2F
:101010007F4F0E94790C9985923078F089898230CF
:10102000C0F0943019F4823041F4CBC0843019F40C
:10103000923079F4C6C0923051F481E02A859A89C1
:10104000291709F480E08A87CE010996BCC0823056
:1010500051F481E02A859A89291709F480E08A8B66
:10106000CE014196B0C06D847E848F849888ED88CF
:10107000FE880F89188DE0E2F0E080E090E0DC016E
:10108000AA24BB24650120E030E0A901B30161700E
:10109000707061157105D1F02E0D3F1D401F511F5D
:1010A00015012601280E391E4A1E5B1E81E090E0C4
:1010B000A0E0B0E02E153F054007510718F080E092
:1010C00090E0DC01820D931DA41DB51DAA0CBB1C74
:1010D000CC1CDD1C17FF09C061E0262E312C412CF1
:1010E000512CA228B328C428D528319749F0EE0CFA
:1010F000FF1C001F111F9694879477946794C6CFA6
:101100006B897C89EB85FC856E0F7F1F6E5F7F4F3F
:101110007C8F6B8F61E0EA857A89E71709F460E0DC
:101120006A8F6B8D7C8D10C0FC01E170F070309780
:1011300029F056954795379527955068B695A79508
:10114000979587956F5F7F4FB7FDEECF0CC0880FE7
:10115000991FAA1FBB1F57FD8160220F331F441F19
:10116000551F615070408030E0E09E07E0E0AE0720
:10117000E0E4BE0760F36B8F7C8F6FE7E62EF12C07
:10118000012D112DE822F9220A231B2360E4E61623
:10119000F1040105110561F487FD0AC0211531052F
:1011A0004105510529F0805C9F4FAF4FBF4F8078BC
:1011B0008D8F9E8FAF8FB8A383E0898FCE01499624
:1011C00002C080E091E00E94AB0BA096E2E10C949B
:1011D0006B0DA8E1B0E0EFEEF8E00C94570D6983D9
:1011E0007A838B839C832D833E834F8358878E0124
:1011F000075F1F4FCE010196B8010E94790C81E173
:10120000E82EF12CEC0EFD1ECE010596B7010E94D2
:10121000790C9985923008F483C08989823008F46A
:101220007BC02A853A8923272A87943011F092308F
:1012300021F4981709F06CC071C0843039F41D8610
:101240001E861F86188A1C861B866AC0823019F487
:1012500084E0898765C08B859C852B893C89821BAE
:10126000930B9C878B872D853E854F855889ED880C
:10127000FE880F89188D2E153F054007510738F459
:10128000220F331F441F551F01979C878B876FE1E7
:1012900070E0A12CB12CC12CA0E4DA2E80E090E00B
:1012A000DC012E153F054007510740F08A299B2994
:1012B000AC29BD292E193F09400B510BD694C79478
:1012C000B794A794220F331F441F551F61507040DD
:1012D00041F76FE7E62EF12C012D112DE822F922BE
:1012E0000A231B2360E4E616F1040105110561F4ED
:1012F00087FD0AC0211531054105510529F0805CA3
:101300009F4FAF4FBF4F80788D879E87AF87B88B39
:101310008E01075F1F4F04C0870102C000E011E08B
:10132000C8010E94AB0B6896EAE00C94730DA8E12B
:10133000B0E0EDE9F9E00C945B0D69837A838B836F
:101340009C832D833E834F8358878E01075F1F4FF9
:10135000CE010196B8010E94790C81E1E82EF12CB2
:10136000EC0EFD1ECE010596B7010E94790C898511
:10137000823040F08989823028F0C801B7010E948C
:10138000E20C01C08FEF6896E6E00C94770DA8E1BF
:10139000B0E0EDECF9E00C945B0D69837A838B830C
:1013A0009C832D833E834F8358878E01075F1F4F99
:1013B000CE010196B8010E94790C81E1E82EF12C52
:1013C000EC0EFD1ECE010596B7010E94790C8985B1
:1013D000823040F08989823028F0C801B7010E942C
:1013E000E20C01C08FEF6896E6E00C94770DA8E15F
:1013F000B0E0EDEFF9E00C945B0D69837A838B83A9
:101400009C832D833E834F8358878E01075F1F4F38
:10141000CE010196B8010E94790C81E1E82EF12CF1
:10142000EC0EFD1ECE010596B7010E94790C898550
:10143000823040F08989823028F0C801B7010E94CB
:10144000E20C01C081E06896E6E00C94770DA8E01C
:10145000B0E0EDE2FAE00C945B0D7B018C0183E0DF
:101460008983D801C7018827B7FD83959927AA27C3
:10147000BB27282F8A83E114F1040105110519F413
:1014800082E0898337C08EE190E09C838B832223A6
:1014900089F080E0E81680E0F80680E0080780E840
:1014A000180769F110950095F094E094E11CF11C87
:1014B000011D111DED82FE820F831887C801B7013F
:1014C0000E94510B9C01215030401216130694F4D7
:1014D000022E04C0EE0CFF1C001F111F0A94D2F74D
:1014E000ED82FE820F8318878EE190E0821B930BC2
:1014F0009C838B83CE0101960E94AB0B04C060E0FD
:1015000070E080E09FEC2896E6E00C94770DACE06C
:10151000B0E0EDE8FAE00C945F0D69837A838B8389
:101520009C83CE010196BE016B5F7F4F0E94790CB8
:101530008D81823081F1823070F1843021F48E818E
:10154000882369F10AC02F81388537FD24C06E8158
:101550002F3131053CF0662311F120E030E040E00E
:1015600050E821C08EE190E0821B930B29853A85DB
:101570004B855C8504C056954795379527958A9588
:10158000D2F7662381F050954095309521953F4FD5
:101590004F4F5F4F08C020E030E0A90104C02FEF9B
:1015A0003FEF4FEF5FE7B901CA012C96E2E00C94E0
:1015B0007B0DA8E0B0E0EFEDFAE00C94590D7B0153
:1015C0008C011A82611571058105910519F482E07B
:1015D00089835FC083E089838EE1C82ED12CDC82B1
:1015E000CB82ED82FE820F831887C801B7010E946B
:1015F000510BFC013197F7FF3AC0AA27BB27AE1B5E
:10160000BF0B21E030E040E050E00A2E04C0220F82
:10161000331F441F551F0A94D2F7215030404040D9
:1016200050402E213F214023512361E070E080E0B3
:1016300090E0211531054105510519F460E070E095
:10164000CB0104C016950795F794E794AA95D2F7B5
:10165000E62AF72A082B192BED82FE820F831887C2
:101660008EE190E08E1B9F0B9C838B8312C0309782
:1016700081F00E2E04C0EE0CFF1C001F111F0A94F7
:10168000D2F7ED82FE820F831887CE1ADF0ADC8242
:10169000CB82CE0101960E94AB0B2896E8E00C9419
:1016A000750DAF92BF92CF92DF92EF92FF920F93A0
:1016B0001F937B018C0180E0E81680E0F80681E052
:1016C000080780E0180758F4EFEFEE16F104010563
:1016D000110509F090F480E090E0DC0117C0F0E023
:1016E000EF16F0E0FF06F0E00F07F1E01F0750F4FF
:1016F00080E190E0A0E0B0E009C088E090E0A0E0E8
:10170000B0E004C088E190E0A0E0B0E020E230E08A
:1017100040E050E0281B390B4A0B5B0B5701680176
:1017200004C0D694C794B794A7948A95D2F7D601EB
:10173000C501885F9E4FFC018081281B310941094A
:101740005109C9011F910F91FF90EF90DF90CF9049
:10175000BF90AF900895EF92FF920F931F93CF9396
:10176000DF93FC012481358146815781618180812D
:10177000823020F44061EFEFF0E0A3C0843009F440
:101780009BC0823009F492C02115310541055105F5
:1017900009F48FC00280F381E02D8FEFE238F80763
:1017A0000CF05AC0C2E8DFEFCE1BDF0BCA31D10507
:1017B0006CF579018A010C2E04C016950795F794F3
:1017C000E7940A94D2F781E090E0A0E0B0E00C2E1C
:1017D00004C0880F991FAA1FBB1F0A94D2F7019754
:1017E000A109B10982239323A423B52321E030E08A
:1017F00040E050E00097A105B10519F420E030E089
:10180000A9012E293F29402B512B03C020E030E0B5
:10181000A901DA01C9018F779070A070B07080348F
:101820009105A105B10539F427FF09C0205C3F4FA0
:101830004F4F5F4F04C0215C3F4F4F4F5F4FE1E080
:10184000F0E0203080E0380780E0480780E4580767
:1018500028F5E0E0F0E022C0E038F1056CF5E15851
:10186000FF4FDA01C9018F779070A070B07080349B
:101870009105A105B10539F427FF09C0205C3F4F50
:101880004F4F5F4F04C0215C3F4F4F4F5F4F57FF9B
:1018900005C05695479537952795319687E056951B
:1018A0004795379527958A95D1F70BC0E0E0F0E092
:1018B00005C0E0E0F0E005C0EFEFF0E020E030E050
:1018C000A9018E2F879588278795942F9F776795F5
:1018D00066276795E695E22EA92FA82BFE2FF62BFB
:1018E000622F732F8A2F9F2FCDB7DEB7E6E00C94BF
:1018F000770DDC01FB012C9111963C91119712960A
:101900008C911297482F4F7750E0982F991F992765
:10191000991F13966C911397862F880F892B90E04F
:10192000661F6627661F6183009739F5211531050B
:101930004105510511F482E029C082E89FEF9383AD
:10194000828367E0220F331F441F551F6A95D1F72A
:1019500083E0808309C0220F331F441F551F8281FB
:101960009381019793838283203080E0380780E061
:10197000480780E4580778F320C08F3F910579F439
:10198000211531054105510519F484E0808308953E
:1019900044FF03C081E0808310C010820EC08F57C7
:1019A00090409383828383E0808387E0220F331FFC
:1019B000441F551F8A95D1F750642483358346838D
:1019C00057830895FC01DB019081923008F449C0EF
:1019D0008C91823008F445C0943051F46181843098
:1019E000B1F511962C91119730E0261B310941C0B9
:1019F000843021F0923041F48230B1F111968C9113
:101A000011978823A1F12DC06181823001F11196D7
:101A10008C9111976817D9F42281338112968D9198
:101A20009C9113978217930794F028173907BCF0FD
:101A3000248135814681578114968D919D910D9019
:101A4000BC91A02D82179307A407B50718F466234D
:101A500041F00DC0281739074A075B0728F46623B1
:101A600031F021E030E005C020E030E002C02FEF8F
:101A70003FEFC9010895AA1BBB1B51E107C0AA1F74
:101A8000BB1FA617B70710F0A61BB70B881F991F1F
:101A90005A95A9F780959095BC01CD0108952F9294
:101AA0003F924F925F926F927F928F929F92AF92EE
:101AB000BF92CF92DF92EF92FF920F931F93CF933B
:101AC000DF93CDB7DEB7CA1BDB0B0FB6F894DEBFD2
:101AD0000FBECDBF09942A88398848885F846E84F8
:101AE0007D848C849B84AA84B984C884DF80EE8042
:101AF000FD800C811B81AA81B981CE0FD11D0FB64B
:101B0000F894DEBF0FBECDBFED010895FB019F012C
:101B1000E8944230C4F04532B4F44A3029F497FBDB
:101B20001EF4909581959F4F642F77270E943B0D5F
:101B3000805D8A330CF0895D8193CB010097A1F71A
:101B400016F45DE251931082C9010C94A70DDC01DB
:101B5000FC01672F71917723E1F7329704C07C91E4
:101B60006D9370836291AE17BF07C8F30895F89420
:021B7000FFCFA5
:101B72000000000000000000000102020303030352
:101B8200040404040404040405050505050505050B
:101B920005050505050505050606060606060606EB
:101BA20006060606060606060606060606060606D3
:101BB20006060606060606060707070707070707BB
:101BC20007070707070707070707070707070707A3
:101BD2000707070707070707070707070707070793
:101BE2000707070707070707070707070707070783
:101BF200070707070707070708080808080808086B
:101C02000808080808080808080808080808080852
:101C12000808080808080808080808080808080842
:101C22000808080808080808080808080808080832
:101C32000808080808080808080808080808080822
:101C42000808080808080808080808080808080812
:101C52000808080808080808080808080808080802
:101C620008080808080808080808080808080808F2
:081C720008080808080808082A
:00000001FF
